:100000000C942A020C944B020C944B020C944B025D
:100010000C944B020C944B020C944B020C944B022C
:100020000C944B020C944B020C944B020C94353301
:100030000C944B020C944B020C944B020C944B020C
:100040000C944B020C94AF330C944B020C944B0267
:100050000C944B020C944B020C944B020C9477338F
:100060000C944B020C9426370C94D6370C944B020C
:100070000C944B020C944B020C944B020C944B02CC
:100080000C944B020C944B020C944B020C941537BD
:100090000C944B020C944B020C944B020C944B02AC
:1000A0000C944B020C944B020C944B020C944B029C
:1000B0000C944B020C944B020C944B020C944B028C
:1000C0000C944B020C944B020C944B020C944B027C
:1000D0000C944B020C944B020C944B020C944B026C
:1000E0000C944B02084AD73B3BCE016E84BCBFFD4B
:1000F000C12F3D6C74319ABD56833DDA3D00C77FF8
:1001000011BED9E4BB4C3E916BAAAABE0000008090
:100110003F05A84CCDB2D44EB93836A9020C50B91F
:10012000918688083CA6AAAA2ABE000000803F004B
:100130000C94213E0C94463A0C9490370C94BB3DA1
:100140000C94B83D0C94EE3D0C949E220C94AC376C
:100150000C94F73D0C948C220C94B6370C947F22AF
:100160000C94453E0C94AA370C94AE370C94363E52
:100170000C94193E0C94B4370C94C03D0C941C2282
:100180000C94C0370C9479370C94243E0C94C622FE
:100190000C94E23D0C94B8370C94D0220C94C33DDF
:1001A0000C9492370C94BC370C94A4370C942D3ECD
:1001B0000C94A6370C9465220C94BC220C949E37A8
:1001C0000C943C3E0C940D3E0C9490220C94B03751
:1001D0000C94CD3D0C94A8370C94BE370C94503E33
:1001E0000C9472220C94D53D0C94033E0C94BA37B7
:1001F0000C94E0220C94A2370C94E53D0C94593EEB
:100200000C94B23D0D0A4772626C20312E32692087
:100210005B27242720666F722068656C705D0D0A6D
:1002200000244E005B4F50543A003A005B41585353
:100230003A005B5645523A312E32692E3230323610
:10024000303532313A005B544C4F3A005B4739321B
:100250003A003330003238005B47005B443A0020FC
:100260004700204D00205300204600205400333822
:100270002E005B47433A47005B484C503A24242009
:10028000242320244420244720244920244E2024B1
:10029000783D76616C20244E783D6C696E65202433
:1002A0004A3D6C696E652024534C50202443202421
:1002B00058202448207E2021203F206374726C2D1A
:1002C000785D0D0A00414C41524D3A000D0A005B29
:1002D0005052423A007C413A007C4F763A007C57BB
:1002E000434F3A007C506E3A007C46533A007C4CB7
:1002F0006E3A007C42663A007C57506F733A007C3D
:100300004D506F733A00536C65657000446F6F72A7
:100310003A00436865636B00416C61726D00486F21
:100320006D65004A6F6700486F6C643A0052756EE5
:100330000049646C65006572726F723A000000C813
:10034000430000C8430000C843E4380E41E4380EBF
:100350004100803B4400803B4400803B440000B4AB
:10036000440000B44400C82F4800C82F4800C82FDC
:100370004800C82F4800C82F480000C8C3000048E4
:10038000C3000048C30000B4C3000034C30A000027
:10039000FE010AD7A33C6F12033B00803B4600805E
:1003A000094430000000C84100007A43FA00000010
:1003B000A0406F6B0D0A00536C656570696E670035
:1003C000526573746F72696E67207370696E646CC6
:1003D0006500526573746F72696E6720646566614B
:1003E000756C74730050676D20456E6400436865DA
:1003F000636B204C696D69747300436865636B209F
:10040000446F6F720044697361626C656400456E8D
:1004100061626C65640043617574696F6E3A205562
:100420006E6C6F636B656400272448277C27245813
:100430002720746F20756E6C6F636B005265736557
:100440007420746F20636F6E74696E7565005B4D08
:1004500053473A0011241FBECFEFD1E2DEBFCDBF1C
:1004600000E00CBF12E0A0E0B2E0EAE2F7E800E052
:100470000BBF02C007900D92AE31B107D9F721E151
:10048000AEE1B2E001C01D92A53EB207E1F70E94C5
:1004900024380C9493430C9400008F929F92AF9257
:1004A000BF92CF92DF92EF92FF920F931F93CF9361
:1004B000DF937C016B01DC01EC91F0E0EB51FF4E2E
:1004C0008081EF018D3229F52296818101E0912C06
:1004D000F0E010E020E030E0A9015E01E0EDE80F7F
:1004E000EA3018F5FF5FF930E0F491101150A5E003
:1004F000B0E00E946C439B01AC01220F331F441FEC
:10050000551F2E0F311D411D511D2196D5018C9176
:10051000E4CF8B3219F0219600E0D9CF2296818169
:10052000FBCF911006C01F5FF0CFEE3F29F4911072
:1005300003C099249394E9CFFF23F9F0CA01B901CC
:100540000E9469404B015C0120E030E0A9010E945B
:10055000B73F81112BC0002309F445C0B7FAB0940E
:10056000B7F8B094F60180829182A282B382C55E10
:10057000D041C150F701C083F1E08F2FDF91CF91BF
:100580001F910F91FF90EF90DF90CF90BF90AF90B1
:100590009F908F9008952AE037ED43E25CE3C50118
:1005A000B4010E9419424B015C011E5F1F3F9CF386
:1005B0001F3F59F42DEC3CEC4CEC5DE3C501B4015C
:1005C0000E9419424B015C01C6CF112321F220E0A9
:1005D00030E040E251E4C501B4010E9419424B01F0
:1005E0005C011150F2CFD6018D929D92AD92BC92DA
:1005F0001397BDCF2FB7F89490918E0F892B8093CE
:100600008E0F2FBF08952FB7F89490918D0F892BDF
:1006100080938D0F2FBF08959FB7F89480938C0F10
:100620009FBF08959FB7F89420918B0F80958223E8
:1006300080938B0F9FBF08952FB7F89490918B0FE5
:10064000892B80938B0F2FBF08954F925F926F92EB
:100650007F92AF92BF92CF92DF92EF92FF920F9371
:100660001F93CF93DF930AE010E1EC015C0184E17A
:10067000A80EB11CF801C190D190E190F1908F01CA
:1006800020E030E0A901C701B6010E94B73F8823EE
:10069000A9F0488059806A807B8020E030E0A90181
:1006A000C301B2010E94D9411816E4F0A3019201DE
:1006B000C701B6010E94D9411816A4F02496CA15A4
:1006C000DB05C1F680E0DF91CF911F910F91FF9084
:1006D000EF90DF90CF90BF90AF907F906F905F9042
:1006E0004F90089581E0EFCF8F929F92AF92BF928B
:1006F000CF92DF92EF92FF920F931F93CF93DF93EE
:10070000EB012EECE22E2FE0F22E8C016B0184E146
:10071000C80ED11C6991799189919991F7018190C5
:100720009190A190B1907F010E946B40A50194012E
:100730000E94C13FF80161937193819391938F015E
:10074000CC15DD0539F7DF91CF911F910F91FF9007
:10075000EF90DF90CF90BF90AF909F908F900895D3
:1007600090910601892F8E7159F094FB882780F9AA
:1007700021E0822791FF826092FF846093FF88606E
:100780000895CF93DF93C091890FD0918A0F20975E
:10079000C9F08091590F81608093590F60916F0F5C
:1007A0007091700F8091710F9091720F9B01AC014D
:1007B0000E9419426AA37BA38CA39DA310928A0F67
:1007C0001092890FDF91CF910895CF93DF934091DD
:1007D0001F1050E06091201070E0A9E6B4E0E4E65C
:1007E000F4E090E080E0282FEA01082E02C0D595C1
:1007F000C7950A94E2F7C0FF29C031E0882351F081
:1008000030E4813039F030E1833021F038E0843059
:1008100009F432E03083EB0102C0D595C7952A95E3
:10082000E2F7C0FF1BC0882331F0813089F08330AC
:1008300089F0843089F022E02C930196119631964C
:100840008530910581F6DF91CF9108951082E3CF35
:1008500020E8F2CF20E4F0CF28E0EECF1C92EDCFDD
:100860008091331082FF2BC05F9A8A9A8091080191
:10087000816080930801129A479A80916404809362
:10088000850480916504809386048091660480933A
:100890008704809167048093880480916804809322
:1008A000890480911E108250990B880F8195809346
:1008B000840480916F00826080936F0008955F9838
:1008C0008A98809108018E7F80930801129847983A
:1008D000D4CF9093A9008093A800892B31F4809104
:1008E000A0008F778093A00008958091A000806879
:1008F000F9CFE0EAF0E080818F778083A5980895B2
:10090000E0EAF0E080818F778083A1E0B1E08C9114
:1009100088608C9382E080838AE18093A1008FEFCE
:1009200090E09093A7008093A6009D9A6B9A2091E7
:100930002F10309130104091311050913210609151
:100940002B1070912C1080912D1090912E100E94E0
:10095000C13E9B01AC0160E070E08EE793E40E9431
:10096000C13F60936004709361048093620490932C
:1009700063040C947904E0915B0291E09E0F209156
:100980005C03291761F0F0E0E45AFD4F80839093F7
:100990005B028091C10080628093C10004C02091FD
:1009A0008B0F24FFECCF0895CF93DF93C5EED0E1FA
:1009B0008991811103C0DF91CF9108950E94BB04FA
:1009C000F7CFCF93C82F81E3C3FF80E30E94BB041E
:1009D00081E3C2FF80E30E94BB0481E3C1FF80E3A7
:1009E0000E94BB0481E3C0FF80E3CF910C94BB0461
:1009F00010928F0F9091331097FD03C090E8909361
:100A00008F0F882329F080918F0F805880938F0F4C
:100A100008958F929F92AF92BF92CF92DF92EF9202
:100A2000FF920F931F93CF93DF93CDB7DEB72D9730
:100A30000FB6F894DEBF0FBECDBF6B017C01042F53
:100A400020E030E0A9010E94B73F87FF07C08DE298
:100A50000E94BB04F7FAF094F7F8F094102F1230CC
:100A600008F054C000FF0AC020E030E040E251E44A
:100A7000C701B6010E9419426B017C0120E030E001
:100A800040E05FE3C701B6010E94C23E0E943340CE
:100A900010E03AE0832E912CA12CB12CE12FF0E054
:100AA0006115710581059105E9F581E090E08C0FF4
:100AB0009D1FE80FF91F80E3101708F445C01013BD
:100AC00009C0E1E0F0E0EC0FFD1FE10FF11D80E354
:100AD00080831F5FEE24E394F12CEC0EFD1EE10EEB
:100AE000F11C111134C02D960FB6F894DEBF0FBE65
:100AF000CDBFDF91CF911F910F91FF90EF90DF90CD
:100B0000CF90BF90AF909F908F90089520E030E0FD
:100B100048EC52E4C701B6010E9419426B017C0106
:100B200012509DCFEE24E394F12CEC0EFD1EEE0E40
:100B3000FF1EA50194010E944243605DF70160839E
:100B4000B901CA011F5FAACF1F5F8193B5CF1013F0
:100B500003C08EE20E94BB04F70182917F010E94D4
:100B6000BB041150BECF2091331040E020FF07C0DE
:100B70002BE832E441E25DE30E94194241E00C942B
:100B800009052091331043E020FF07C02BE832E431
:100B900041E25DE30E94194244E00C9409050F9381
:100BA0001F93CF938C01C0E0F80161917191819105
:100BB00091918F010E94C105C43019F08CE20E940E
:100BC000BB04CF5FC53081F7CF911F910F9108957E
:100BD0008F929F92AF92BF92CF92DF92EF92FF924D
:100BE0000F931F93CF93DF9300D000D000D01F92BC
:100BF000CDB7DEB76115710581059105A9F480E3D4
:100C00002A960FB6F894DEBF0FBECDBFDF91CF910D
:100C10001F910F91FF90EF90DF90CF90BF90AF901A
:100C20009F908F900C94BB0400E09E012F5F3F4F7C
:100C300079012AE0822E912CA12CB12C6701C00EE3
:100C4000D11CA50194010E944243F6016083B901C1
:100C5000CA010F5F611571058105910579F70E0DC8
:100C60001F2D111DE016F10699F42A960FB6F8947F
:100C7000DEBF0FBECDBFDF91CF911F910F91FF90CF
:100C8000EF90DF90CF90BF90AF909F908F9008959E
:100C9000F80182918F01805D0E94BB04E3CFCF9366
:100CA000DF93843658F06AE00E942243C0E3C90F04
:100CB0006AE00E942243D0E3D90F04C0C0E0D0E034
:100CC0008A30B0F7805D0E94BB04DD2319F08D2FC0
:100CD0000E94BB04CC2329F08C2FDF91CF910C9480
:100CE000BB04DF91CF910895CF93DF93EC01FE0118
:100CF00084912196811103C0DF91CF9108950E94C4
:100D0000BB04F5CF8CEC92E00C947406CF93C82F03
:100D100086E393E00E9474068C2F0E944F06CF91C9
:100D20000C948206811104C082EB93E00C9474064B
:100D30000C948606CF92DF92EF92FF92CF93DF93CF
:100D4000D82F6A017B01C22F84E20E94BB048D2F41
:100D50000E944F068DE30E94BB044C2FC701B601D1
:100D60000E940905DF91CF91FF90EF90DF90CF9027
:100D70000C948206CF93DF93D82FC62F84E20E9473
:100D8000BB048D2F0E944F068DE30E94BB048C2F65
:100D90000E944F06DF91CF910C948206EF92FF9252
:100DA0000F931F93CF93DF9381E080935A0260915A
:100DB0001E1070E080E00E94BA066091211070E081
:100DC00081E00E94BA0660911F1070E082E00E94EC
:100DD000BA066091201070E083E00E94BA0660912C
:100DE000331062FB662760F970E084E00E94BA0667
:100DF0006091331066FB662760F970E085E00E9421
:100E0000BA0680913310082E000C990B692F661FCB
:100E10006627661F70E086E00E94BA066091221085
:100E200070E08AE00E94BA0640912310509124108D
:100E3000609125107091261023E08BE00E949A06A5
:100E400040912710509128106091291070912A101C
:100E500023E08CE00E949A0660913310617070E08C
:100E60008DE00E94BA066091331065FB662760F939
:100E700070E084E10E94BA066091331063FB66273C
:100E800060F970E085E10E94BA06609133106295C6
:100E9000617070E086E10E94BA066091341070E0E3
:100EA00087E10E94BA06409135105091361060914A
:100EB00037107091381023E088E10E949A06409123
:100EC000391050913A1060913B1070913C1023E022
:100ED00089E10E949A0660913D1070913E108AE16E
:100EE0000E94BA0640913F1050914010609141100D
:100EF0007091421023E08BE10E949A0640912B10E2
:100F000050912C1060912D1070912E1020E08EE1E8
:100F10000E949A0640912F1050913010609131102C
:100F20007091321020E08FE10E949A066091331098
:100F30006695617070E080E20E94BA0684E6F82E41
:100F400010E0CEECDFE000E0E02EEF0C123021F1FB
:100F5000133079F11130D9F0488159816A817B8150
:100F600023E08E2D0E949A060F5F2496053061F7CC
:100F70008AE0F80E1F5F8CE8F812E3CF10925A0255
:100F8000DF91CF911F910F91FF90EF9008954C89C1
:100F90005D896E897F89E4CF20E030E041E655E449
:100FA00068A579A58AA59BA50E94C13FAB01BC019C
:100FB000D7CF4CAD5DAD6EAD7FAD7058D1CF8DE567
:100FC0000E94BB040C948206CF93DF93CDB7DEB7AB
:100FD00064970FB6F894DEBF0FBECDBF8FEC92E0E2
:100FE0000E94740664EA7FE0CE0101960E947403B9
:100FF000CE0101960E94CF058AE30E94BB04809136
:10100000BE0F0E944F060E94DF0764960FB6F89449
:10101000DEBF0FBECDBFDF91CF910895E0E9FFE0C5
:10102000AEE2B2E041915191619171914D935D9326
:101030006D937D938FE0E43AF807A1F70895BF928E
:10104000CF92DF92EF92FF920F931F93CF93DF9394
:101050007C01FC0102AD13ADD4ADC5AD858D80FF23
:1010600033C06091C50F70E090E080E00E946B405B
:101070002AE037ED43E25CE30E9419429B01AC0198
:10108000B8018D2F9C2F0E9419428B01D82FC92F98
:1010900020E030E040E85FE3B8018D2F9C2F0E94F4
:1010A000D941181624F000E010E0D0E8CFE3B801F1
:1010B0008D2F9C2FDF91CF911F910F91FF90EF907B
:1010C000DF90CF90BF90089582FD17C06091C40F4C
:1010D00070E090E080E00E946B402AE037ED43E250
:1010E0005CE30E9419429B01AC01B8018D2F9C2F3B
:1010F0000E9419428B01D82FC92FF701B6A8C7A8A3
:10110000D0ACF1AC98014D2F5C2F6B2D7C2D8D2D2B
:101110009F2D0E94B73F87FFBBCF0B2D1C2DDD2DD0
:10112000CF2DB6CF8091AB049091F40D981739F084
:1011300022E4829FC001112484559B4F089590E0C2
:1011400080E008950E949208892B19F082E00C94A7
:101150001C0308952F923F924F925F926F927F925D
:101160008F929F92AF92BF92CF92DF92EF92FF92B7
:101170000F931F93CF93DF9300D01F92CDB7DEB7AD
:101180000091F40D002309F486C0098339813150A0
:1011900039831091AA04131709F466C0C32ED12C09
:1011A000E2E43E9FC00111249C0124553B4F79018C
:1011B000F90176A087A090A4A1A462A573A584A537
:1011C00095A59B01AC010E94C23EF70126A537A55B
:1011D00040A951A90E941942B62EE72EF82E9B83F2
:1011E000262F372F482F592F672D782D892D9A2D8F
:1011F0000E94B73F87FF03C0B72C7401AB8282E423
:101200008C9DF0018D9DF00D1124E455FB4F8B2D2D
:101210009E2DAF2DBB8182A393A3A4A3B5A3F98177
:101220008F2FF11101C084E2FF24FA94F80E309060
:10123000AB041F1133C0131102C00E94C103E2E4CA
:101240001E9FC001112484559B4F9A8389833324A8
:101250003394310EF4E23F1201C0312C82E4282E87
:10126000031185C01093AA040F900F900F900F9058
:10127000DF91CF911F910F91FF90EF90DF90CF9072
:10128000BF90AF909F908F907F906F905F904F90A6
:101290003F902F90089524E2298378CF298182E41A
:1012A000289F9001112424553B4F3C832B8322E43B
:1012B000E22E8F2C912CFE9CC0011124FC01E455E0
:1012C000FB4FFA83E983F11002C094E2F92EFA94FD
:1012D000F31002C00E94C103E89CC001E99C900D7C
:1012E00011249C0124553B4F6901F90146A057A0E8
:1012F00060A471A4A301920162A173A184A195A12C
:101300000E94B73F882339F1F60162A573A584A531
:1013100095A59B01AC010E94C23EF60126A537A50A
:1013200040A951A90E941942EB81FC8122A133A15D
:1013300044A155A10E94C23E4B015C01AC019B013E
:10134000C301B2010E94D941F60118165CF482A2D1
:1013500093A2A4A2B5A229813A813C832B831F11B9
:10136000A8CF6DCF42A253A264A275A2F4CFC32C22
:10137000D12C329CC00111249C0124553B4F790192
:10138000E981FA8142A053A064A075A0F90182A06E
:1013900093A0A4A0B5A0A5019401C301B2010E942D
:1013A000B73F87FF26C0E981FA8162A573A584A5AE
:1013B00095A59B01AC010E94C23EE981FA8126A558
:1013C00037A540A951A90E941942A30192010E9488
:1013D000C23E2B013C01AC019B01C501B4010E943E
:1013E000D941181634F4F70142A253A264A275A29F
:1013F000132D2C9CF0012D9CF00D1124E455FB4F76
:1014000026A137A140A551A562A173A184A195A1F0
:101410000E94B73F811101C0132D3394F4E23F12B3
:1014200001C0312CFA82E9821BCF6F927F928F929A
:101430009F92AF92BF92CF92DF92EF92FF920F9363
:101440001F93CF93DF93EB018C015B0184E1A80E26
:10145000B11C89E9682E96E7792E26E9822E3EE7AF
:10146000932EC990D990E990F99020E030E0A9013D
:10147000C701B6010E94B73F8823B9F0A7019601C2
:10148000F80160817181828193810E94C13F6B016B
:101490007C01E894F7F89301A401C701B6010E940A
:1014A000D941181614F0360147010C5F1F4FCA15B9
:1014B000DB05B9F6B301C401DF91CF911F910F9104
:1014C000FF90EF90DF90CF90BF90AF909F908F9064
:1014D0007F906F900895CF92DF92EF92FF920F93DB
:1014E0001F93CF93DF9384E1C82E82E0D82EAFE024
:1014F000B2E0C5E0D2E000E012E030E020E090E0B1
:1015000080E041E050E0722FF601E190F1906F0130
:10151000F7016081FD90FA0102C0EE0FFF1FFA94FF
:10152000E2F76E2339F47A01022E01C0EE0C0A9420
:10153000EAF78E29E990F990F7016081F801F190BE
:101540008F01FA0102C0EE0FFF1FFA94E2F76E233B
:1015500039F4FA0102C0EE0FFF1F7A95E2F79E2BD5
:101560002F5F3F4F2530310571F62091331026FF54
:101570000CC08923806E8095DF91CF911F910F91D0
:10158000FF90EF90DF90CF900895892BF5CF6D9865
:10159000E4E0F1E080818D7F80835398AAE0B1E0A0
:1015A0008C918F778C938C918F7D8C936C988081AC
:1015B0008E7F8083529899988598759AE5E0F1E03E
:1015C0008081826080835B9AABE0B1E08C9180681F
:1015D0008C938C9180628C93749A808181608083DB
:1015E0005A9AA19A8D9A089560E97FE08BE590E17F
:1015F0000C947403F894F999FECF92BD81BD81E0FB
:101600008FBB20B5862F8227082E000C990B50E047
:1016100086239523892B49F084E16F3F11F060BD4B
:1016200084E08FBBF99A789408952617E1F360BDA2
:1016300084E2F7CF8F929F92AF92BF92CF92DF92C8
:10164000EF92FF921F93CF93DF934C017A016B01CE
:10165000C40ED51EEB0110E05C01A61AB70ACE013C
:101660008A0D9B1D110F111D6991160F0E94FA0A18
:10167000CC16DD06A1F7612FC4018E0D9F1DDF91F1
:10168000CF911F91FF90EF90DF90CF90BF90AF90E0
:101690009F908F900C94FA0A6AE090E080E00E949C
:1016A000FA0A45E750E06EEC7FE081E090E00C94B0
:1016B0001A0BF999FECF92BD81BD81E08FBB80B539
:1016C00008958F929F92AF92BF92CF92DF92EF9246
:1016D000FF921F93CF93DF934B017A016C01C40EED
:1016E000D51EEC0110E05B01A81AB90AC5018C0FE8
:1016F0009D1F0E94590B110F111D180F8993CC15B6
:10170000DD05A1F7C4018E0D9F1D0E94590B21E03C
:1017100030E0811711F030E020E0C901DF91CF9176
:101720001F91FF90EF90DF90CF90BF90AF909F9070
:101730008F900895809102018695817090910201A9
:1017400090FD82601199846013998860089590914A
:10175000BA0F91110CC086FF0BC02C9A87FF0AC0EC
:10176000809102018064809302011092C80F089555
:101770002C98F4CF809102018F7BF5CF2C98E2E07A
:10178000F1E080818F7B808308952C9B06C080E4EC
:101790009091020196FD8068089580E0F9CF4F9204
:1017A0005F926F927F92AF92BF92CF92DF92EF9251
:1017B000FF920F931F93CF93DF93CDB7DEB7EC97D4
:1017C0000FB6F894DEBF0FBECDBF84E1E0E9FFE0C5
:1017D000DE01119601900D928A95E1F7BE016F5FCF
:1017E0007F4FCE0145960E9474038CE30E94BB0498
:1017F0008091B90F883009F41EC108F0F9C081301A
:1018000009F422C108F412C1823009F420C18430E5
:1018100009F417C180912210082F017080FF2CC19C
:101820008091C90F882309F427C18FEF92E00E94AD
:101830007406CE0145960E94CF058091221081FF4B
:1018400020C083EF92E00E9474069091F40D809185
:10185000AB04981708F45FC18D5D891B0E944F0689
:101860008CE20E94BB0480915D0490915E04981705
:1018700008F453C190915E04981B892F80950E94B3
:101880004F060E9492080097F1F0FC01C68CD78C9D
:10189000E0A0F1A0C114D104E104F104A1F08EEEA6
:1018A00092E00E947406C701B601F7FE0AC08DE2FD
:1018B0000E94BB0466277727CB016C197D098E092E
:1018C0009F090E94E80589EE92E00E9474068091CB
:1018D000B90F8C7709F426C160916F0F7091700F6A
:1018E0008091710F9091720F0E94B3058CE20E945B
:1018F000BB046091CA0F7091CB0F8091CC0F909177
:10190000CD0F40E00E9409050E946B0A182F0E942B
:10191000B003082F809106018078F0908F0FF82691
:10192000812F802B8F29D1F184EE92E00E947406E2
:10193000FF2019F080E50E94BB041123C9F010FFBD
:1019400003C088E50E94BB0411FF03C089E50E9423
:10195000BB0412FF03C08AE50E94BB0413FF03C04F
:1019600081E40E94BB0414FF03C082E40E94BB0414
:101970000023A1F000FF03C084E40E94BB0401FF28
:1019800003C082E50E94BB0402FF03C088E40E94FA
:10199000BB0403FF03C083E50E94BB048091C90F11
:1019A000882309F4C3C081508093C90F1091C80FD8
:1019B000112309F4D4C011501093C80F8EE30E9474
:1019C000BB040E948206EC960FB6F894DEBF0FBEF1
:1019D000CDBFDF91CF911F910F91FF90EF90DF90DE
:1019E000CF90BF90AF907F906F905F904F90089591
:1019F000803221F198F4803109F00CCF8091BB0F37
:101A000087FD1CC087E293E00E9474068091BB0FA3
:101A100080FF2EC080E30E94BB04FCCE8034D1F056
:101A2000803809F0F7CE86E093E002C081E393E0CE
:101A30000E947406EFCE8DE293E0FACF83E293E04A
:101A4000F7CF8EE193E0F4CF88E193E0F1CF82E12C
:101A500093E0EECF8CE093E00E9474068091BB0F80
:101A600083FF02C083E3D7CF82FF04C085FFD2CFBC
:101A700081E3D1CF82E3CFCF409097105090981060
:101A80006090991070909A108FE6A82E80E1B82E81
:101A90006E0189E2C80ED11CFE0175967F0110E02F
:101AA000F50161917191819191915F012089318955
:101AB000428953890E94C23EF601619371938193DA
:101AC00091936F01123041F4A30192010E94C23E32
:101AD00069AB7AAB8BAB9CAB011112C0F6013497AA
:101AE0002081318142815381F7016081718182813E
:101AF00093810E94C13EF701608371838283938347
:101B00001F5FF4E0EF0EF11C153051F601118DCE80
:101B100088EF92E08CCE8150A0CE90915E048150EF
:101B2000891BADCE60E070E0CB01DECE8091B90FB5
:101B30008C7799F08DE18093C90F8091C80F811146
:101B400003C081E08093C80F8EED92E00E9474067E
:101B5000CE0189960E94CF0529CF89E0ECCF8091F4
:101B6000B90F8C7709F44FC083E18093C80F89EDDA
:101B700092E00E9474068091C40F0E944F068CE28E
:101B80000E94BB048091C50F0E944F068CE20E9408
:101B9000BB048091C60F0E944F06A59B07C0809191
:101BA000A00087FF03C0739930C011E00E94C50BED
:101BB000F82E0E949A0B082F111105C0F11003C0D6
:101BC000882309F4FBCE85ED92E00E947406112370
:101BD00031F083E5113009F083E40E94BB04F6FE86
:101BE00003C086E40E94BB04F7FE03C08DE40E949C
:101BF000BB04002309F4E2CE84E40E94BB04802FDE
:101C00000E94E104DBCE89E0B0CF12E0CFCFEEE25C
:101C1000F2E08CE2DF011D928A95E9F71092AB04A5
:101C20001092F40D81E080932D021092AA04089581
:101C30004F925F926F927F928F929F92AF92BF92DC
:101C4000CF92DF92EF92FF920F931F93CF93DF9388
:101C5000EC0188E2A82E82E0B82E4E0124E1820E2B
:101C6000911C8E01C12CD12C7601F801419051902C
:101C7000619071908F0120E030E0A901C301B201B1
:101C80000E94B73F882391F0F501808181110EC039
:101C9000A3019201C301B2010E9419429B01AC0150
:101CA000C701B6010E94C23E6B017C01FFEFAF1A73
:101CB000BF0A08151905C9F6C701B6010E94B84246
:101CC0006B017C01AC019B0160E070E080E89FE368
:101CD0000E94C13F2B013C016991799189919991B1
:101CE0005E0124E0A21AB108A30192010E941942E8
:101CF000F5016083718382839383C017D10761F7F5
:101D0000C701B601DF91CF911F910F91FF90EF9026
:101D1000DF90CF90BF90AF909F908F907F906F900B
:101D20005F904F9008954F925F926F927F928F9243
:101D30009F92AF92BF92CF92DF92EF92FF926B0190
:101D40007C0180902F1090903010A0903110B090B6
:101D5000321040902B1050902C1060902D107090ED
:101D60002E10A3019201C501B4010E94D94187FF41
:101D70001BC06091C60F70E090E080E00E946B4055
:101D80002AE037ED43E25CE30E941942A701960185
:101D90000E9419426B017C01AC019B01C301B2019D
:101DA0000E94B73F1816BCF04092CA0F5092CB0F5A
:101DB0006092CC0F7092CD0F8FEF90E0FF90EF907C
:101DC000DF90CF90BF90AF909F908F907F906F905B
:101DD0005F904F900895A7019601C501B4010E943C
:101DE000D94187FD1FC020E030E0A901C701B6013D
:101DF0000E94B73F81110BC01092CA0F1092CB0FF7
:101E00001092CC0F1092CD0F90E080E0D7CF80924F
:101E1000CA0F9092CB0FA092CC0FB092CD0F81E061
:101E200090E0CCCFC092CA0FD092CB0FE092CC0FF3
:101E3000F092CD0FA5019401C701B6010E94C13EE9
:101E400020916004309161044091620450916304D8
:101E50000E9419420E94A64020E030E040E85FE383
:101E60000E94C23E0E943A40CB01A8CF9091BA0F87
:101E700091110EC081110DC01092CA0F1092CB0F9C
:101E80001092CC0F1092CD0F0E9479041092C80FBF
:101E90000895803191F473989091331091FF05C0AB
:101EA000803219F440E050E0BA01CB01BA010E943F
:101EB000930E0E946904A59AE9CF739AEDCF2F92F1
:101EC0003F924F925F926F927F928F929F92AF92CA
:101ED000BF92CF92DF92EF92FF920F931F93CF9317
:101EE000DF93CDB7DEB7EB970FB6F894DEBF0FBE2A
:101EF000CDBF8091BD0F80FD4AC29091F50D8091BC
:101F0000F60D981709F443C28091890F90918A0FBA
:101F1000892B09F07EC01091BD0F12FF51C2809134
:101F2000F40D22E4829FC001112484559B4F9093AD
:101F30008A0F8093890F4091890F50918A0F5A8799
:101F40004987452B09F423C20091590F00FF3BC27A
:101F50001092590F10926B0F10926C0F10926D0F20
:101F600010926E0FA985BA859A962D913D914D914B
:101F70005C919D9729833A834B835C8360E070E09A
:101F800080E09FE30E94C13F6D837E838F839887AB
:101F9000E985FA8546A457A460A871A882A093A0F9
:101FA000A4A0B5A011FF0CC3F2E0F0936A0FA50145
:101FB00094010E9419429B01AC01C301B2010E942D
:101FC000C13E6B017C0120E030E0A9010E94B73FD7
:101FD00087FFE5C229813A814B815C81CA01B90141
:101FE0000E94C23EA30192010E9419429B01AC01D2
:101FF000C501B4010E94C13E0E94B8426093770FB0
:102000007093780F8093790F90937A0F18601093E4
:10201000BD0FE091470EF8E0EF9FD0011124BA8B7D
:10202000A98BFD01E950F24F8091580F84832091D4
:10203000890F30918A0F3A872987D9019E96BC91E2
:10204000BDA3F901F7A5FEA3D901D096BC91BFA30A
:10205000F901F1A9F8A72091660F3091670F40911F
:10206000680F5091690F6DA17EA18B2F9F2F0E9449
:10207000C13E69AB7AAB8BAB9CAB20E030E0A901F1
:102080000E94B73F87FF04C019AA1AAA1BAA1CAA5C
:102090002091730F2D8B3091740F3E8B4091750FF3
:1020A0004F8B5091760F588F80917B0F8D8F909131
:1020B0007C0F9E8FA0917D0FAF8FB0917E0FB8A344
:1020C000E0917F0FE9A7F091800FFAA72091810F8F
:1020D0002BA73091820F3CA740916F0F4AAF5091D0
:1020E000700F5BAF0091710F1091720F80916A0FAA
:1020F0008D8790916B0F9DA7A0916C0FAEA7B091AB
:102100006D0FBFA7E0916E0FE8ABF091770FFEABBC
:102110002091780F2FAB3091790F38AF40917A0F23
:1021200049AF29A53AA54BA55CA56D8D7E8D8F8DF8
:1021300098A10E94B73F8111D2C352E05DAB9DA12F
:10214000998FAEA1AA8FBFA1BB8FE8A5EC8F8EE3BC
:10215000C82E83ECD82E8EE2E82E89E3F82E412C8F
:10216000512C3201A701960129A33AA34BA35CA3EA
:102170005D85513009F44EC4A985BA85513008F403
:10218000DEC3533009F07CC49A962D913D914D9158
:102190005C919D97C701B6010E9419424B015C01F9
:1021A0002D893E894F89588D6AAD7BADC8010E944B
:1021B000C13E9B01AC01C501B4010E94D94187FD1C
:1021C00098C32D8D3E8D4F8D58A16DA17EA18FA1FD
:1021D00098A50E94C13E9B01AC010E94C23E6B01CA
:1021E0007C012AAD3BADA8016D897E898F89988DD0
:1021F0000E94C23E9B01AC01C701B6010E94C13FD3
:102200006B017C01BD89BAAFEE89EBAF0F89188DE8
:102210002D8C3E8CFF8DF98328A12D8331E03D87E5
:10222000A7019601C301B2010E94C23E2B013C01ED
:1022300029A13AA14BA15CA10E94B73F87FF88C4A6
:10224000A301920169A17AA18BA19CA10E94C13E28
:102250006B017C01910149815D816DA57EA58FA5F2
:1022600098A90E94B73F87FD3DC33D8530936A0F13
:102270008AAD9BADD80180936F0F9093700FA093A0
:10228000710FB093720FE091480EF091490E858D59
:10229000811104C09091BD0F93FF32C0A985BA850A
:1022A0005D969C915D97907309F472C4FD01FE9652
:1022B000C080D180E280F3808823A9F02091830F31
:1022C0003091840F4091850F5091860F6AAD7BADA0
:1022D000C8010E9419429B01AC01C701B6010E94CE
:1022E00019426B017C01C701B6010E94930E9093C5
:1022F000880F8093870F8091BD0F877F8093BD0FDC
:102300008091870F9091880FE989FA89E950F24FFF
:10231000FAA3E9A3978386832091620F3091630F1C
:102320004091640F5091650FB10189819D810E9498
:10233000194269877A878B879C870E94A03F6B012F
:102340007C0160915E0F70915F0F8091600F9091A2
:10235000610F0E94A03F4B015C01A70196010E9402
:10236000C13E0E943A406D877E878F87988BED85AE
:10237000FE85A9A1BAA1ED93FC93EF2B09F015C43A
:102380008091BD0F81FF11C481608093BD0FEB96DA
:102390000FB6F894DEBF0FBECDBFDF91CF911F9176
:1023A0000F91FF90EF90DF90CF90BF90AF909F90F4
:1023B0008F907F906F905F904F903F902F900895F7
:1023C0000E949208B4CD8091580F8F5F893009F434
:1023D00080E08093580F282F30E05EE1859FC00198
:1023E0001124DC01A65BB14F7D01B093490EA0938F
:1023F000480EE985FA85808D58968C935897818D83
:1024000059968C935997828D5A968C935A97838DAF
:102410005B968C935B97848D5C968C9390E080E0C8
:102420004191519161917191D701A80FB91F6894A1
:1024300012F8440F551F661F771F1694D1F74D935E
:102440005D936D937C93139704968431910541F7C6
:10245000A985BA8554966D917D918D919C915797E0
:10246000BEE1B29FA001B39F500D1124FA01E65BBB
:10247000F14F4B015C0123E0880C991CAA1CBB1C8A
:102480002A95D1F7848A958AA68AB78A0E946940DC
:1024900060935E0F70935F0F8093600F9093610F56
:1024A000E985FA8526A537A540A951A90E94C13F13
:1024B0009B01AC012093620F3093630F4093640F34
:1024C0005093650F60E070E080EA9FE30E94C13F97
:1024D0006093660F7093670F8093680F9093690FF6
:1024E00010925A0F10925B0F10925C0F10925D0FBA
:1024F00011FD02C003FF42C06091770F7091780F09
:102500008091790F90917A0F60936F0F7093700F95
:102510008093710F9093720F9B01AC010E9419423E
:10252000A985BA8592966D937D938D939C9395978B
:10253000077F0093590FD7015D961C92809133104D
:1025400081FF08CDE985FA85858D85FF03CD22AD14
:1025500033AD44AD55AD60E070E080E89FE30E948C
:10256000C13F6093830F7093840F8093850F909386
:10257000860FE1E0D7015D96EC93ECCCE985FA8516
:1025800062A173A184A195A10E94B84260936F0FCC
:102590007093700F8093710F9093720FCCCFC09295
:1025A0006B0FD0926C0FE0926D0FF0926E0F109245
:1025B000770F1092780F1092790F10927A0F26CD24
:1025C00010926A0F40927B0F50927C0F60927D0FA9
:1025D00070927E0F12FF6AC01092770F1092780FE0
:1025E0001092790F10927A0FC12CD12C7601898527
:1025F0009A850E941F08698B7A8B8B8B9C8B9B0121
:10260000AC010E94194269877A878B879C87A50154
:1026100094010E94B73F87FF93C029853A854B8577
:102620005C85C501B4010E94C13E2D813E814F8170
:1026300058850E9419429B01AC01C301B2010E945E
:10264000C13E60937B0F70937C0F80937D0F9093BE
:102650007E0F20E030E0A9010E94B73F18160CF46D
:1026600049C032E030936A0F29813A814B815C8105
:10267000CA01B9010E94C23EA30192010E941942FF
:102680009B01AC01C501B4010E94C13E0E94B84249
:102690006093770F7093780F8093790F90937A0FF0
:1026A0008091590F88608093590FB0CCE091AB04B2
:1026B000EF5FE43209F4E0E08091F40DC12CD12CFD
:1026C00076018E1751F022E42E9FF0011124E4557B
:1026D000FB4FC2A0D3A0E4A0F5A0C701B6010E94A1
:1026E000B8426093770F7093780F8093790F90932F
:1026F0007A0F7DCFA701960169857A858B859C85A8
:102700000E94C13E2D813E814F8158850E94194211
:1027100060937F0F7093800F8093810F9093820F4F
:1027200089899A89AB89BC898093730F9093740FC0
:10273000A093750FB093760F93E090936A0F66CCD9
:10274000A7019601C501B4010E94C13E2D813E81C1
:102750004F8158850E941942A30192010E94C23EF6
:1027600020E030E040E05FE30E9419426D877E8701
:102770008F87988B20E030E0A9010E94D94118167C
:102780000CF094C0A30192016D857E858F85988998
:102790000E94B73F87FF88C0A701960169857A85A7
:1027A0008B859C850E94C13E2D813E814F8158853D
:1027B0000E9419429B01AC0120937F0F3093800F40
:1027C0004093810F5093820F6D857E858F85988908
:1027D0000E94D9411816BCF529893A894B895C8930
:1027E0002093730F3093740F4093750F5093760FAF
:1027F000A501940169857A858B859C850E94B73FE8
:10280000811104C031E030936A0F00CCA50194011E
:1028100069857A858B859C850E94C13E2D813E818C
:102820004F8158850E9419429B01AC01C301B2013E
:102830000E94C13E60937B0F70937C0F80937D0F4D
:1028400090937E0FE3CB8D859E85AF85B88980936D
:102850007B0F90937C0FA0937D0FB0937E0F80939E
:102860007F0F9093800FA093810FB093820F2981E7
:102870003A814B815C81CA01B9010E94C23E2D851B
:102880003E854F8558890E941942A70196010E94F2
:10289000C23E0E94B8426093730F7093740F80938E
:1028A000750F9093760FB2CB92E047CF8091770F60
:1028B0009091780FA091790FB0917A0F10927B0FC1
:1028C00010927C0F10927D0F10927E0F8093730FE9
:1028D0009093740FA093750FB093760F97CB81E010
:1028E0008DAB2DCC298E3A8E39813B8F4D814C8F0B
:1028F0003FCC20E030E040E05FE3C501B4010E943E
:1029000019429B01AC016AAD7BADC8010E94C13E7A
:10291000A70196010E9419429B01AC01698D7A8D35
:102920008B8D9C8D0E94C13E1B0189839D83A501D7
:1029300094016AAD7BADC8010E94C13E67C09A9602
:102940002D913D914D915C919D97C701B6010E94DB
:1029500019424B015C0120E030E040E05FE30E945F
:1029600019422AAD3BADA8010E94C23EA7019601C3
:102970000E9419429B01AC01698D7A8D8B8D9C8DD3
:102980000E94C13E1B0189839D839B01AC016D8D1B
:102990007E8D8F8D98A10E94D941181684F52D8DBA
:1029A0003E8D4F8D58A16DA17EA18FA198A50E944B
:1029B000C13E9B01AC010E94C23E6B017C012AAD6D
:1029C0003BADA8016D897E898F89988D0E94C23E9A
:1029D0009B01AC01C701B6010E94C13F6B017C01A4
:1029E000BD89BAAFEE89EBAF0F89188DFDA9FD87C0
:1029F0002D8C3E8C2F8D298338A13D8311CCA501D0
:102A000094016AAD7BADC8010E94C23E6AAF7BAF44
:102A10008C0106CC2D893E894F89588DC701B6019E
:102A20000E9419429B01AC01698D7A8D8B8D9C8D22
:102A30000E94C13E1B0189839D8329A53AA54BA510
:102A40005CA50E94B73F87FFEBCB29A53AA54BA514
:102A50005CA5698D7A8D8B8D9C8D0E94C13E2D89E0
:102A60003E894F89588D0E94C13F6B017C0129A48A
:102A70003AA44BA549835CA55D8382E08D87D0CBCA
:102A80009A962D913D914D915C919D97C701B6010C
:102A90000E9419424B015C012AAD3BADA8010E9486
:102AA000B73F87FF27C020E030E040E05FE3C5018B
:102AB000B4010E9419429B01AC016AAD7BADC80113
:102AC0000E94C13EA70196010E9419429B01AC01E0
:102AD000698D7A8D8B8D9C8D0E94C13E1B018983EF
:102AE0009D832DA53EA54FA558A90E94D941181632
:102AF0000CF41DCF2DA53EA54FA558A9698D7A8D43
:102B00008B8D9C8D0E94C13E9B01AC010E94C23EF8
:102B10006B017C012AAD3BADA8016EA97FA988ADF0
:102B200099AD0E94C23E9B01AC01C701B6010E9453
:102B3000C13F6B017C01BEA9BAAFEFA9EBAF08ADF5
:102B400019AD2DA43EA4FFA5F98328A92D8368CB38
:102B500029A93AA94BA95CA9B10189819D810E944B
:102B6000D94118168CF42EE333EC4EE259E369A1F7
:102B70007AA18BA19CA10E94C23E69A37AA38BA3D8
:102B80009CA3A301920162CB4D8540936A0F70CB49
:102B90001092CA0F1092CB0F1092CC0F1092CD0F43
:102BA0001092880F1092870FA6CB20915A0F309168
:102BB0005B0F40915C0F50915D0FC301B2010E9409
:102BC000C23E2B013C0129853A854B855C85C501B8
:102BD000B4010E94C13E9B01AC01C301B2010E943D
:102BE000C13F4B015C0120EC31EE44E65EE40E9403
:102BF00019420E94A03F0E943A40E989FA89E950AF
:102C0000F24F603D37E073078105910508F059C028
:102C10001582E989FA89E950F24F738362838091C2
:102C2000F60D8093470E8F5F8A3009F480C0809341
:102C3000F60DE091890FF0918A0FC101A981BD8144
:102C400086A797A7A0ABB1ABC0925E0FD0925F0FE3
:102C5000E092600FF092610F29853A854B855C8583
:102C6000C701B6010E94C13EA50194010E9419420C
:102C700060935A0F70935B0F80935C0F90935D0F7E
:102C800020916B0F30916C0F40916D0F50916E0F32
:102C9000B10189819D810E94B73F81112EC9909118
:102CA000BD0F998720E030E0A901B10189819D81A4
:102CB0000E94D9411816F4F5A985A160A093BD0F13
:102CC00066CB603A4FE074078105910520F551E02D
:102CD0005583E989FA89E950F24F2581022E04C013
:102CE00096958795779567950A94D2F74D855E8579
:102CF00002C0440F551F2A95E2F7518340836115A6
:102D0000710551E08507910508F483CF8FEF9FEFA0
:102D10009383828384CF6034AFE17A078105910584
:102D200018F4B2E0B583D5CF23E02583D2CF10923B
:102D3000F60D7FCFB985B2FF04C0B160B093BD0F6F
:102D400026CB10928A0F1092890F9091AB0480913C
:102D5000F40D891709F4D1C881E0890F843209F490
:102D600080E02091AA04921302C08093AA04809369
:102D7000AB04C3C880916F008D7F80936F008091FA
:102D80008100887F81608093810010926E04809121
:102D900021109091B90F8F3FE1F420918C0F2111F8
:102DA00018C09038C1F490E00197B8F481E0909198
:102DB000331092FF02C091E089278823A9F05F9A1F
:102DC0008A9A80910801816080930801129A479A3B
:102DD0000895943041F780E0EACFEFE9FFE03197C2
:102DE000F1F700C00000E0CF5F988A988091080159
:102DF0008E7F80930801129847980895CF93DF93B0
:102E00000E94BA16E8E5FFE081E3DF011D928A9592
:102E1000E9F7CFE6D4E08BE3FE0111928A95E9F75A
:102E200010928A0F1092890F1092F50D1092470E92
:102E300081E08093F60D10926E040E94E503E9E6AE
:102E4000F4E080818B8F21812C8F92819D8F638113
:102E50006E8F54815F8F81B38E7FA4E6B4E03C9186
:102E6000832B81BB81B38D7F3081832B81BB41B3A9
:102E70004F7B11968C911197482B41BB31B33F7713
:102E8000322B31BBEBE0F1E03081377F12968C9131
:102E90001297382B308320812D7F292B208322B15C
:102EA0002F7E13968C911397282B22B992B19F7B7A
:102EB000962B92B998B19D7F14968C91982B98B9C6
:102EC00088B1877F852B88B9DF91CF910895809154
:102ED0008B0F84FD1DC080E10E941C030E947904B9
:102EE0000E94BE0B9091B90F892F8C7221F48091B2
:102EF000BD0F867069F0943049F480918C0F811178
:102F000003C086E00E940C030C94BA1683E0FACF4B
:102F100008954F925F926F927F928F929F92AF929D
:102F2000BF92CF92DF92EF92FF920F931F93CF93B6
:102F3000DF93C0918C0FCC2391F181E08093B90F86
:102F400085EC92E00E9474068C2F0E944F060E942E
:102F5000820685EF91E00197E9F5C150C230D0F4C7
:102F60008EE494E00E9474068CE394E00E94740660
:102F70000E94DF0780E10E94120380918B0F80FF87
:102F800005C00E94CF0B81E00E94120380918B0F3D
:102F900084FFF3CF8FB7F89410928C0F8FBFC0913E
:102FA0008B0FCC2309F4E2C0C4FF1BC081E08093E7
:102FB000BA0FDF91CF911F910F91FF90EF90DF90AB
:102FC000CF90BF90AF909F908F907F906F905F90C9
:102FD0004F900895EFE9FFE03197F1F700C000004E
:102FE000BACFC0FF05C00E94CF0B81E00E94120340
:102FF0008C2F887E09F46AC08091B90F982F937046
:1030000009F053C08872A9F08091BB0F807C89F4CD
:103010000E94C10382E08093BD0F8091B90F80327E
:1030200041F480E2C7FD0CC08091BB0F80688093A3
:10303000BB0F8091B90F811103C091E09093BB0F3A
:10304000C6FF07C085FD05C09091BB0F90649093AB
:10305000BB0FC3FF05C0807E19F480E18093B90FD8
:10306000C5FF23C08EE494E00E9474068AEF93E0CB
:103070000E9474060E94DF078091BB0F87FD10C07D
:103080009091B90F903451F483FF04C0837E826025
:103090008093BB0F80E48093B90F02C09038D1F7C2
:1030A0008091BB0F80628093BB0FC7FF0CC08091E3
:1030B000B90F813029F48091BB0F85608093BB0FDD
:1030C00080E88093B90F88EE0E941203C1FF28C0E8
:1030D0008C2F887611F58091B90F803441F480915E
:1030E000BB0F85FD04C084FF02C11092B90F80910F
:1030F000B90F882309F401C184FF0FC09091BB0F61
:1031000090FF0BC0803109F0F8C08091C70F882371
:1031100009F4F3C088608093C70F82E00E94120315
:10312000C2FF24C09091BB0F8091B90F807D09F43C
:10313000FDC08091BC0F8111F9C097FDF9C00E94BC
:10314000C1038091AB048093AA040E94AA088091D5
:10315000BD0F81FF05C09091BB0F91609093BB0F95
:10316000897F8093BD0F84E00E94120390918D0FA0
:10317000992309F44DC08FB7F89410928D0F8FBF2B
:103180004091C40F842F90FD84E691FD865F92FDEF
:103190008A5093FD8F5F94FD8150893C08F088EC44
:1031A0008A3008F48AE03091C50F232F95FD24E67C
:1031B00096FD22E397FD29E1481302C0231741F150
:1031C0008093C40F2093C50F1092C80F8090AB045A
:1031D0004090F40DC82D89E9B82E96E7E92E26E92E
:1031E000F22EDEE732E4532EC411BDC08B2D9E2D8E
:1031F000AF2DBD2F8093560290935702A093580293
:10320000B09359020E94C1038092AA040E94AA08A6
:10321000D0918E0FDD2309F453C08FB7F89410922C
:103220008E0F8FBF9091C60F892FD0FD84E6D1FD00
:10323000865FD2FD8A50D3FD8F5FD4FD8150893CDB
:1032400008F088EC8A3008F48AE09817A1F0909191
:10325000B90F8093C60F9111DBC040914E10509171
:103260004F10609150107091511080914C100E943D
:10327000360F1092C80F8091B90FD5FF09C0803169
:1032800039F49091C70F9111C9C092E09093C70F84
:103290009D2F907CA9F0882311F0887389F0C0914C
:1032A0004B10D7FF03C0C7FFBDC0CF77D6FF03C009
:1032B000C6FFBAC0CF7B8C2F0E94A70BC0934B10C8
:1032C0008091B90F8C7F09F474CEDF91CF911F915B
:1032D0000F91FF90EF90DF90CF90BF90AF909F90B5
:1032E0008F907F906F905F904F900C945F0F82FF54
:1032F000FECE88608093BB0FFACE1092BD0F0E9465
:103300009208892B71F08091BB0F86FD0AC0109244
:10331000BB0F88E08093B90F0E945F0F0E943004BA
:10332000FCCE1092BB0F1092B90FF7CE97FF0AC0D8
:103330001092BD0F0E94070E0E94FE160E94F40A12
:103340000E940E088091BB0F85FF08C08F778160B7
:103350008093BB0F80E48093B90F05CF1092BB0F11
:103360001092B90F00CFCC2ED12CC59DC0011124D5
:1033700084559B4F0E941F083B01982EA92E2B2D90
:103380003E2D4F2D5D2F0E94D9415C9C80015D9C9C
:10339000100D112404551B4F18169CF52B2D3E2D96
:1033A0004F2D5D2F6B2D7E2D8F2D9D2F0E9419424D
:1033B000F80166A377A380A791A75C9C80015D9C20
:1033C000100D112404551B4FF801C2A8D3A8E4A87E
:1033D000F5A8A701960166A177A180A591A50E94F5
:1033E000D94118162CF4F801C6A2D7A2E0A6F1A67E
:1033F000CF5FC43209F4C0E0B62CE72CF92CDA2DEB
:10340000F3CE9301492D5A2DB301892D9A2DCECF9C
:103410008091BD0F88608093BD0F2BCF90FF38CF78
:10342000946034CFC06842CFC06445CF1F93CF9320
:10343000DF93142F20E030E040EA51E40E9419426B
:103440000E94A03F0E943A40EB012097C9F0809172
:10345000BA0F811115C011110DC00E94441A2FEF2F
:1034600080E792E0215080409040E1F700C00000EA
:103470002197EBCF0E9489178091BB0F81FFEFCF7F
:10348000DF91CF911F910895CF92DF92EF92FF923B
:103490000F931F93CF930E9489178091BB0F8823AE
:1034A00009F46DC00E9492088C01009709F03FC09A
:1034B000C0914C1080914B10C82BC0904E10D090F2
:1034C0004F10E0905010F09051108091331081FF18
:1034D00003C080E20E94FA021C2F107301E0C07C3E
:1034E0008091BB0F882309F44AC09091BA0F9111C3
:1034F00046C080FF19C09091B90F292F207C09F494
:1035000091C082FD21C01092C70F40E050E0BA0187
:1035100080E00E94360F80E00E94A70B8091BB0FD5
:103520008D7F84608093BB0F0E948917D9CFFC01E7
:10353000C58DC0730E94C50BC82BF801FE96C080D4
:10354000D180E280F380C1CF903821F58EE494E001
:103550000E94740687EB93E00E9474060E94DF07C6
:1035600040E050E0BA0180E00E94360F80E00E9407
:10357000A70B0E94BA168091BA0F882341F0CF9111
:103580001F910F91FF90EF90DF90CF9008950E94D0
:103590008917F1CF903449F40E94B00380FD05C033
:1035A0008091BB0F8F7D8093BB0F8091BB0F83FFFA
:1035B000BBCF90914C10992359F081FD09C08091A7
:1035C000331081FF22C08091BD0F88608093BD0FB2
:1035D00080914B10882371F08091BB0F81FD0AC050
:1035E0008C2F0E94A70B41E060E070E080E89FE331
:1035F0000E94161A8091BB0F81FD96CF8061809347
:10360000BB0F82E00E941C038FCFB701A601812F60
:103610000E94360F41E060E070E080E890E40E9494
:10362000161AD6CF8091C70F8823C9F181FF0DC02C
:1036300080914C10882351F140E050E0BA0180E0C5
:103640000E94360F0093C70F6FCF8C7009F46CCFB8
:1036500080914C10882399F08EE494E00E947406C7
:1036600080EC93E00E9474060E94DF078091331083
:1036700081FF0FC08091BD0F88608093BD0F809146
:10368000C70F83FF03C082E00E941C031092C70F84
:103690004BCFB701A601812F0E94360FF0CF80914A
:1036A000BD0F83FF41CFB701A601812F0E94360FC6
:1036B0008091BD0F877F8093BD0F36CF0E94A208F7
:1036C0000E94441A8091BA0F811108C00E9492088A
:1036D000892BB1F78091B90F883091F30895CF937A
:1036E000DF9321E031E0829FE001839FD00D112420
:1036F000DD5F40E051E0BE0185EE90E10E94610B8C
:10370000892B79F41092E5100E945E1B40E051E095
:1037100065EE70E1CE010E941A0B80E0DF91CF913F
:10372000089581E0FBCF0E945E1B1092C90F08959F
:10373000CF92DF92EF92FF92CF939091B90F923098
:1037400079F06A017B01C82F0E945E1BB701A601B8
:103750008C2FCF91FF90EF90DF90CF900C94360F8D
:10376000CF91FF90EF90DF90CF9008950F931F932C
:10377000CF93C82F8B010E945E1B25E1C29FC00121
:10378000112444E150E0B8019E5FCF911F910F9149
:103790000C941A0B1F93CF93DF93182FEB0185E145
:1037A000189FB00111247E5F44E150E0CE010E94D9
:1037B000610B892B71F484E1FE0111928A95E9F77E
:1037C000BE01812F0E94B61B80E0DF91CF911F9137
:1037D000089581E0FACFEF92FF920F931F93CF935A
:1037E000DF93CDB7DEB764970FB6F894DEBF0FBE98
:1037F000CDBF182F80FF0BC085E7EDE3F3E0AEEC03
:10380000BFE005900D928A95E1F70E944C0B11FFE5
:1038100010C0CE0101967C0184E1F70111928A95D6
:10382000E9F700E0B701802F0E94B61B0F5F083058
:10383000C9F712FF14C060E080E093E00E94FA0A2A
:1038400060E081E093E00E94FA0A60E081E094E0A9
:103850000E94FA0A60E082E094E00E94FA0A13FFF4
:103860000AC060E08EEA93E00E94FA0A60E08FEA04
:1038700093E00E94FA0A64960FB6F894DEBF0FBE7A
:10388000CDBFDF91CF911F910F91FF90EF900895E1
:103890002F923F924F925F926F927F928F929F9260
:1038A000AF92BF92CF92DF92EF92FF920F931F934E
:1038B000CF93DF93CDB7DEB7C256D1090FB6F894D8
:1038C000DEBF0FBECDBF67967FAF6EAF6797B0907C
:1038D000F40D2B2C312C22E4B29EA0011124BA014C
:1038E00064557B4F63967FAF6EAF6397DB011D928C
:1038F0002A95E9F76796EEADFFAD67972485DB0162
:103900005D962C93FB01FE966796AEADBFAD6797B3
:1039100014964D915D916D917C91179740835183E1
:103920006283738318964D915D916D917C911B9785
:103930006396EEADFFAD6397468F578F60A371A37B
:1039400021FFBAC124E1E0E9FFE0DE019996019090
:103950000D922A95E1F764968FAF649765969FAFB5
:1039600065972EEC3FE0A1963FAF2EAFA197BE0129
:103970006B5E7F4F6F967FAF6EAF6F97CE0189966C
:103980006D969FAF8EAF6D97DE01DD966996BFAFE6
:10399000AEAF69976B96BFAFAEAF6B9710E000E02C
:1039A000912C812C22E4229DC001239D900D112495
:1039B000FC01E054FB4FA396FFAFEEAFA3976596D3
:1039C000AEADBFAD65976D917D918D919D916596E1
:1039D000BFAFAEAF6597A196EEADFFADA197419099
:1039E000519061907190A196FFAFEEAFA197A301A6
:1039F00092010E9419420E94E6416F96AEADBFADA2
:103A00006F976D937D938D939D936F96BFAFAEAF80
:103A10006F976D96EEADFFAD6D97C190D190E1902F
:103A2000F1906D96FFAFEEAF6D976C197D098E0921
:103A30009F099B01AC0197FF07C022273327A901EB
:103A4000261B370B480B590B6396EEADFFAD639702
:103A5000E00FF11F2083318342835383A396AEADE1
:103A6000BFADA397CD90DD90ED90FC90C216D3062C
:103A7000E406F50610F469017A01A396EEADFFADF8
:103A8000A397C082D182E282F3820E946B40A3019D
:103A900092010E94C13F6B96AEADBFAD6B976D9327
:103AA0007D938D939D936B96BFAFAEAF6B9720E0E8
:103AB00030E0A9010E94B73F87FF16C0882D8820FB
:103AC00049F0813009F4FCC0833009F4FBC0843034
:103AD00009F4FAC082E06396EEADFFAD6397E80D9E
:103AE000F91D908D892B808FBFEF8B1A9B0A0C5F7D
:103AF0001F4F0431110509F062CF80E0CD28CE2898
:103B0000CF2809F4BFC0CE01CD960E94180E6B01DC
:103B10007C0182E4829D8001839D100D1124045557
:103B20001B4FF801C6A6D7A6E0AAF1AABE01635CA6
:103B30007F4F86EF9FE00E94150AD8019A966D93F9
:103B40007D938D939C939D97BE01635C7F4F82EE26
:103B50009FE00E94150AF80166AB77AB80AF91AF8A
:103B6000A58CA0FEB3C062AF73AF84AF95AF809158
:103B7000AB04B81611F0A1FEC5C082E4829DF0012D
:103B8000839DF00D1124E455FB4F12A213A214A241
:103B900015A212AA13AA14AA15AA82E4829D800172
:103BA000839D100D112404551B4FD8015D968C91F7
:103BB00081FD67C063968EAD9FAD63970E941F081D
:103BC0006B017C018090560290905702A0905802A1
:103BD000B0905902AC019B01C501B4010E94B73FEE
:103BE00087FF76C1A5019401C501B4010E94194265
:103BF000F80166A377A380A791A782E4829D800144
:103C0000839D100D112404551B4FF80182A893A821
:103C1000A4A8B5A8A501940166A177A180A591A546
:103C20000E94D94118163CF4D80196968D929D9227
:103C3000AD92BC929997C0925602D0925702E092F0
:103C40005802F092590284E1FE01FD96A2E4B2E02E
:103C500001900D928A95E1F784E1FE017596AEE23E
:103C6000B2E001900D928A95E1F780912D02809348
:103C7000F40D8F5F843209F480E080932D020E945E
:103C8000AA0881E0CE59DF4F0FB6F894DEBF0FBE11
:103C9000CDBFDF91CF911F910F91FF90EF90DF90FB
:103CA000CF90BF90AF909F908F907F906F905F90DC
:103CB0004F903F902F90089524E1EEE2F2E045CE40
:103CC00080E809CF80E407CF88E005CF6796EEADA6
:103CD000FFAD67972081318142815381A3FC08C0E9
:103CE000D801DA962D933D934D935C93DD973FCFAA
:103CF000C701B6010E941942F80162AF73AF84AFE9
:103D000095AF35CF22E432E065963FAF2EAF659791
:103D10008E010F5F1F4F69966EAD7FAD69976C5E28
:103D20007F4F6D967FAF6EAF6D97C12CD12C760112
:103D300066960FAF66976A961FAF6A976596AEADA7
:103D4000BFAD65978D909D90AD90BD906596BFAFCE
:103D5000AEAF65976996EEADFFAD69974190519012
:103D6000619071906996FFAFEEAF6997A3019201E0
:103D7000C501B4010E9419429B01AC01C701B60103
:103D80000E94C13E6B017C01A5019401C301B201F7
:103D90000E94C13ED8016D937D938D939D938D01BB
:103DA0006D96EEADFFAD6D9769962EAD3FAD6997FF
:103DB000E217F30719F62FEE3FEF4FE75FE3C70176
:103DC000B6010E94D94118164CF482E4829DF0019C
:103DD000839DF00D1124E455FB4FDBCE2FEE3FEF1A
:103DE0004FE75FEBC701B6010E94B73F87FF11C0E5
:103DF00082E4829DF001839DF00D1124E455FB4F78
:103E000089E996E7A6E9BEE782AB93ABA4ABB5AB75
:103E1000C4CE66968FAD66976A969FAD6A970E94EC
:103E2000180E66966FAD66976A967FAD6A9786EFB5
:103E30009FE00E94150A4B015C01A701960160E01A
:103E400070E080E89FE30E94C13E20E030E040E067
:103E50005FE30E9419420E94B8426B017C012091ED
:103E60002310309124104091251050912610C50147
:103E7000B4010E941942A70196010E9419424B0108
:103E80005C01A701960160E070E080E89FE30E947A
:103E9000C13E9B01AC01C501B4010E94C13F6B0151
:103EA0007C0120E030E0A9010E94B73F87FF03C0FA
:103EB000C12CD12C760182E4829DF001839DF00D0E
:103EC0001124E455FB4FC2AAD3AAE4AAF5AA65CEF1
:103ED000A7019601C701B6010E941942D801969622
:103EE0006D937D938D939C93999787CEFF920F93BB
:103EF0001F93CF93DF938C01EB018091331085FFEB
:103F000023C0F090B90F80E2F81611F1C8010E94A9
:103F100025038823C9F081E08093BC0F88E0F81264
:103F20000CC00E941C030E94441A8091BA0F811198
:103F30000BC08091B90F8111F6CF0E94671782E004
:103F40000E940C030E94441A8091B90F823041F103
:103F50000E94441A8091BA0F811122C09091AB0443
:103F600080912D02981303C00E94A208F1CFBE01D8
:103F7000C8010E94481C811113C08091331081FF39
:103F80000FC08C8584FF0CC04C815D816E817F8168
:103F900080E1DF91CF911F910F91FF900C94981BBE
:103FA000DF91CF911F910F91FF9008952F923F9233
:103FB0004F925F926F927F928F929F92AF92BF9239
:103FC000CF92DF92EF92FF920F931F93CF93DF93E5
:103FD000CDB7DEB7CF55D1090FB6F894DEBF0FBE0F
:103FE000CDBFEBE9F0E18AE4DF011D928A95E9F7A4
:103FF0008BE0E3E4F0E1ACE9B0E101900D928A9549
:10400000E1F7809156108093D0108091E5108432B2
:10401000A1F01EA21FA61BA61CA61DA61EA61BAEB7
:104020001CAE1DAE1EAE1BAA412C512C3201312CF0
:10403000812C912C540183949AC181E080939C102F
:1040400010929D1083E08EA3B1E0BFA7E4CF2FA014
:10405000EFEB2E0EF9E1F21510F40C949B308F5F0C
:104060008EA3BE016E5D7F4FCE0186960E944D02EB
:10407000882311F40C949E30CAA0DBA0ECA0FDA014
:10408000C701B6010E94FC420E943A40162F70E020
:1040900090E080E00E946B409B01AC01C701B6013B
:1040A0000E94C13E20E030E048EC52E40E941942F8
:1040B0000E9486420E943A40CB012FA1273401F191
:1040C0002D3409F4FCC0EFA1E654EF3008F078C2BB
:1040D0000E2E000CFF0B8827EF58FF4D8F4F0C94CE
:1040E00064431C22E022E022652272227F228C227D
:1040F000E0229022E0229E22E022BC22C622D02290
:10410000183209F4DAC028F5143160F4113108F0DE
:1041100097C0143009F472C0B0F01A3009F467C0C7
:1041200084E195C01C3109F462C040F41631C0F737
:1041300025E1211B20939E1006E086C01E3109F464
:1041400056C0163269F731100C94A130E2E03E2ED1
:1041500027C01D3309F4ACC0D8F4153309F44EC0A0
:1041600080F41B3211F01133D9F631100C94A130C8
:10417000113309F096C01092A11073E0372E08E0B9
:104180004FC01C3368F616531093A21009E05CC0B0
:104190001C3510F51A3508F074C0103509F0C0CF81
:1041A00010939C1001E0163209F04EC08431910545
:1041B00051F08E31910539F08832910521F082332A
:1041C000910509F0ADCF6AE070E00E942E4366577A
:1041D00060939C1001E024C01C3549F01F3508F0A5
:1041E0009FCF2EE5211B20939D1005E02DC0009749
:1041F00029F431100C94A1303324339410939B1084
:10420000212F2D7F2C3119F000E01C35E9F40097A7
:1042100019F00A9709F084CF610F60939B1000E0BA
:104220008BAD9CADADADBEAD002E04C0B695A795CF
:10423000979587950A94D2F780FF83C085E107C0E0
:1042400011511093A01002E0892B51F387E1C15A5C
:10425000DF4F0FB6F894DEBF0FBECDBFDF91CF9119
:104260001F910F91FF90EF90DF90CF90BF90AF9094
:104270009F908F907F906F905F904F903F902F9086
:104280000895892B29F41A5510939F1003E0C8CF85
:104290006A30710509F044CF1A3509F441CF04E0C2
:1042A000BFCF0A9709F03CCF81E08093A11065CF82
:1042B000892B09F035CF0AE0B3CF07E0C5CF892BB2
:1042C00029F61A3078F4173058F51330C0F016304C
:1042D00008F026CF1430F9F080E11530E9F410929F
:1042E000A5101CC01E3179F008F41ACF82EC810FA2
:1042F000843008F015CF10939B100FE091CF11235D
:1043000029F0113031F01093A31003C083E08093A3
:10431000A3100BE085CF80E28093A5100CE080CF46
:10432000183041F08091A4108068193031F4109257
:10433000A41005C08091A41080648093A4100DE0A7
:104340006FCFD501C401002E04C0880F991FAA1F8A
:10435000BB1F0A94D2F72BAD3CAD4DAD5EAD282B03
:10436000392B4A2B5B2B2BAF3CAF4DAF5EAF8EA1F1
:10437000E82FF0E0EB51FF4E30813FA3311167CEC3
:10438000411451046104710421F0311002C052E063
:10439000352E4BA545FF0FC08091C0109091C110E4
:1043A000A091C210B091C31081389649A849B105B7
:1043B00014F00C94AA308FA5882309F455C19BA54D
:1043C00090FF64C180919E108130B1F423E333E308
:1043D0004BEC51E46091A7107091A8108091A91046
:1043E0009091AA100E9419426093A7107093A81090
:1043F0008093A9109093AA102BA53CA54DA55EA56E
:1044000030FD10C080914E1090914F10A09150102F
:10441000B09151108093CC109093CD10A093CE10FA
:10442000B093CF1080919B10843009F052C13BA50E
:1044300036FD46C18CE10BCFC092A710D092A810D8
:10444000E092A910F092AA1000E0102F8BA59CA575
:10445000ADA5BEA5002E04C0B695A79597958795E6
:104460000A94D2F780FF02C00C94A43081E693E056
:10447000A0E0B0E0002E04C0B695A795979587956B
:104480000A94D2F780FF0BC020E030E0A901C701F9
:10449000B6010E94B73F87FF02C00C94A730D50138
:1044A000C40104C0880F991FAA1FBB1F1A95D2F719
:1044B0002BA53CA54DA55EA5282B392B4A2B5B2BA4
:1044C0002BA73CA74DA75EA752CFC092AB10D092AE
:1044D000AC10E092AD10F092AE103BA931603BAB56
:1044E00001E0B3CFC092AF10D092B010E092B11003
:1044F000F092B2104BA942604BAB02E0A6CFC09243
:10450000B310D092B410E092B510F092B6105BA93F
:1045100054605BAB03E099CF1093BF1004E095CFDC
:10452000812F90E0B0E0A0E08093C0109093C11084
:10453000A093C210B093C31005E087CF80919B1069
:104540008E53843080F4612F70E090E080E00E9410
:1045500069406093C4107093C5108093C610909307
:10456000C71006E072CFC092C410D092C510E0927E
:10457000C610F092C710F5CFC092C810D092C910E3
:10458000E092CA10F092CB1007E05FCFC092CC103F
:10459000D092CD10E092CE10F092CF1008E055CF1F
:1045A00020E030E04FE753E4C701B6010E94D94153
:1045B000181614F40C94B3301093D01009E045CFC2
:1045C0008FA18835A9F4C092D110D092D210E09278
:1045D000D310F092D410689440F80AE08FA1885567
:1045E000833008F432CFF1E0F21508F499CD2DCFE5
:1045F0009FA1993561F4C092D510D092D610E09267
:10460000D710F092D810689441F80BE0E7CFAFA133
:10461000AA3561F4C092D910D092DA10E092DB1082
:10462000F092DC10689442F80CE0D8CFBFA1B1340E
:1046300061F4C092DD10D092DE10E092DF10F092B3
:10464000E010689443F80DE0C9CFEFA1E23431F6F1
:10465000C092E110D092E210E092E310F092E410E8
:10466000689444F80EE0BACF80919D10813081F4B7
:10467000A2E03A12C1CE80919C10803509F4BCCEE4
:10468000882309F4B9CEBBA5B0FDB6CE86E1DFCD57
:10469000809144108111B0CEEBA5E0FD93CE8091C6
:1046A000521090915310A0915410B09155108093D6
:1046B000A7109093A810A093A910B093AA109CCE15
:1046C0008BA59CA5ADA5BEA58F7B8BA79CA7ADA7F1
:1046D000BEA78091A0108823C9F0813009F4F1C0F1
:1046E00021E02A962FAF2A9734E029963FAF2997E9
:1046F00042E028964FAF28972B961FAE2B9752E09B
:1047000022965FAF229781E08FAF15C094E02A9682
:104710009FAF2A97A2E02996AFAF2997B1E02896DC
:10472000BFAF2897E2E02B96EFAF2B97F1E02296F0
:10473000FFAF22971FAE80919E108130B1F53BE90B
:10474000E32E30E1F32E10E000E0CC24C394D12C12
:10475000C601002E02C0880F991F0A94E2F7092EA5
:10476000000CAA0BBB0B84219521A621B721892B14
:104770008A2B8B2B91F023E333E34BEC51E4D701ED
:10478000D6966D917D918D919C91D9970E941942F9
:10479000F70166AB77AB80AF91AF0F5F1F4FF4E0CF
:1047A000EF0EF11C0330110599F623E032120CC014
:1047B0008091A110813041F485E234E04316510428
:1047C0006104710409F043CD84E1EFE6F0E1DE011C
:1047D000119601900D928A95E1F78BAD9CADADAD30
:1047E000BEAD91FD84C090919B109FA39A3009F4B7
:1047F00092C09C3509F454C143E0341609F447C013
:10480000411451046104710409F441C020909F10C7
:104810008091971090919810A0919910B0919A1052
:104820008FAB98AFA9AFBAAF03E410E1BBE9CB2ED1
:10483000B0E1DB2EF12CE12C81E090E00E2C02C0E7
:10484000880F991F0A94E2F7092E000CAA0BBB0BE4
:1048500084219521A621B721892B8A2B8B2B09F046
:104860009AC1F801808D918DA28DB38DF60186AB32
:1048700097ABA0AFB1AFBFEFEB1AFB0A0C5F1F4FB6
:10488000E4E0CE0ED11CF5E0EF16F104A9F62FA15D
:104890002E3109F4D3C1253309F405C26BEA70E166
:1048A00086E02C3109F068C10E94CA1B882389F177
:1048B000411451046104710409F0C4C1212C312C4C
:1048C000D9C092E02A969FAF2A97A1E02996AFAF70
:1048D0002997B4E02896BFAF2897E1E02B96EFAF79
:1048E0002B9722961FAE2297F2E0FFAF24CF809144
:1048F000A210873010F08DE1AACC90914910891751
:1049000009F471CFBE016F5F7F4F0E94CA1B8111F6
:104910006ACF87E09CCC411451046104710411F406
:104920008AE195CC8BA59CA5ADA5BEA580759927E0
:10493000AA27BB27892B8A2B8B2B09F47BCD60916F
:10494000C4107091C5108091C6109091C7100E943C
:10495000FC420E943A40673070F68091BF1084316B
:1049600031F0823009F0DCCBABA5A7FDD9CB2224F6
:104970002A94260E611102C02090A2106BEA70E109
:10498000822D0E94CA1B882321F2B091BF10BFA3C1
:1049900020919710309198104091991050919A1051
:1049A0002FAB38AF49AF5AAF9BE9E92E90E1F92E12
:1049B00010E000E0CC24C394D12CC601002E02C02C
:1049C000880F991F0A94E2F7092E000CAA0BBB0B63
:1049D00084219521A621B721892B8A2B8B2BC1F10C
:1049E000D701D6968D909D90AD90BC90D997BFA1E0
:1049F000B43109F04DC0F801EE0FFF1FEE0FFF1F9D
:104A0000ED5BFF4EDF01A05CBF4F2D913D914D91BD
:104A10005C91608D718D828D938D0E94C13EA50148
:104A200094010E94C13EF701608B718B828B938B46
:104A3000023071F42FA938AD49AD5AAD0E94C13E84
:104A40006093B3107093B4108093B5109093B61028
:104A50000F5F1F4FB4E0EB0EF11C0530110509F09C
:104A6000ACCF2BA53CA54DA55EA52F7A2BA73CA7C7
:104A70004DA75EA7B0919C10BFA3B03509F01AC135
:104A8000411451046104710409F43FC18FE1DFCB8B
:104A9000D70150968D929D92AD92BC925397D8CFEC
:104AA000411451046104710409F43ACF80909710C5
:104AB00090909810A0909910B0909A1013E4C12E85
:104AC00010E1D12EAE014F5F5F4F58A74FA30BE906
:104AD000E02E00E1F02E10E000E081E090E0002EFA
:104AE00002C0880F991F0A94E2F7092E000CAA0B46
:104AF000BB0B84219521A621B721892B8A2B8B2BD7
:104B0000E9F1AFA1B8A52D913D914D915C91F601D0
:104B1000608D718D828D938D0E94C13ED701D69696
:104B20002D913D914D915C91D9970E94C13EF70125
:104B300066AB77AB80AF91AF023061F4A501940111
:104B40000E94C13E6093D9107093DA108093DB10FD
:104B50009093DC100F5F1F4FF4E0CF0ED11C2FA1FC
:104B600038A52C5F3F4F38A72FA334E0E30EF11C8C
:104B70000530110509F0B1CF212C7CCFF601E05CA6
:104B8000FF4F80819181A281B381F70186AB97AB02
:104B9000A0AFB1AFDFCFFFA1F53309F46CCED601E2
:104BA000D6968D909D90AD90BC90D997211035C030
:104BB000F701EE0FFF1FEE0FFF1F21E030E02C0F7B
:104BC0003D1FE20FF31FD801A05CBF4F2D913D9117
:104BD0004D915C9160817181828193810E94C23E7E
:104BE000A50194010E94C23ED601D6966D937D9395
:104BF0008D939C93D997B2E0EB123DCE2FA938AD9F
:104C000049AD5AAD0E94C23E6093D9107093DA103C
:104C10008093DB109093DC102ECEA5019401F80157
:104C2000608D718D828D938D0E94C23ED601D69685
:104C30006D937D938D939C93D9971DCE6BEA70E114
:104C400087E032CE63E470E1EBE9F0E130E020E0B0
:104C500041E050E0CA01022E02C0880F991F0A9459
:104C6000E2F7092E000CAA0BBB0B6C017D01C420DE
:104C7000D520E620F720CD28CE28CF2859F4DB0117
:104C80005896CD90DD90ED90FC905B97C08AD18ACC
:104C9000E28AF38A2F5F3F4F6C5F7F4F3496253057
:104CA0003105C1F669CF80919C10823008F464CF41
:104CB0008EE1CDCAE2E03E1228C0FFA1F11107C08B
:104CC000411451046104710401F5312C1EC020E02F
:104CD00030E0A9016091A7107091A8108091A910EF
:104CE0009091AA100E94B73F882309F4CFCC2FA13E
:104CF0002C3809F4BDC008F0B1C0223009F4D1C08D
:104D0000233009F4D1C02130D9F2F0909B1082EC0D
:104D10008F0D8430F0F45BA556FF8CCB20E030E0A3
:104D200040E450E46091C4107091C5108091C610A9
:104D30009091C7100E94D941181614F40C94B33006
:104D40008BA59CA5ADA5BEA58F7B8BA79CA7ADA76A
:104D5000BEA72FA521709FA590FF14C38BA59CA56E
:104D6000ADA5BEA58E7D332011F09370A87F892B51
:104D70008A2B8B2B11F00C94B6308E010B5E1F4FDB
:104D80008DE0D8011D928A95E9F7222309F401C329
:104D90008BAD9CADADADBEAD867B892B8A2B8B2BAD
:104DA00011F00C94B930B5E3FB1619F0F1100C9426
:104DB000B93080914E1090914F10A0915010B09149
:104DC0005110898F9A8FAB8FBC8F80914C1090912E
:104DD0004B10892B4091A7105091A8106091A910F9
:104DE0007091AA104D8B5E8B6F8B788F846089A336
:104DF0008091C0109091C110A091C210B091C310C9
:104E00008D8F9E8FAF8FB8A38091331085FF07C021
:104E100081ED90E10E94250381110C94BC30B80112
:104E200081ED90E10E94761F8091B90F81110BC036
:104E30000E949208892B39F080E28093B90F0E947A
:104E40005F0F0E94300484E1E1EDF0E1ABE5B0E1F9
:104E500001900D928A95E1F780E0F9C93FA13E38B3
:104E600039F018F03F3809F050CF3FA530613FA727
:104E70008FA18E58823018F44FA548604FA7411477
:104E800051046104710409F44BCD44E150E061ED3B
:104E900070E18BE590E10E948643892B09F035CFC4
:104EA00082C04FA544604FA74114510461047104AE
:104EB00009F436CD5FADA52EB12C22968FAD229789
:104EC000882E912C01E010E0C80102C0880F991FC4
:104ED0005A95E2F722960FAC229702C0000F111FDD
:104EE0000A94E2F7082B192BC801012E000CAA0B1B
:104EF000BB0B84219521A621B721892B8A2B8B2BD3
:104F000011F40C94AD30F501EE0FFF1FEE0FFF1FF3
:104F1000E556FF4ED501AA0FBB1FAA0FBB1FA55A0E
:104F2000BF4E2D913D914D915C9166A977A980ADC1
:104F300091AD0E94C13E6FAB78AF89AF9AAFF401DB
:104F4000EE0FFF1FEE0FFF1FE556FF4ED401AA0F15
:104F5000BB1FAA0FBB1FA55ABF4E2D913D914D916E
:104F60005C9166A977A980AD91AD0E94C13E27965C
:104F70006CAF7DAF8EAF9FAF27979BA597FF1DC1ED
:104F80002BA53CA54DA55EA52F772BA73CA74DA72C
:104F90005EA744E150E061ED70E18BE590E10E9495
:104FA0008643892B11F481E252C96091C810709137
:104FB000C9108091CA109091CB1020919E10213081
:104FC00071F423E333E34BEC51E40E941942609304
:104FD000C8107093C9108093CA109093CB10809022
:104FE000C8109090C910A090CA10B090CB102FA9F3
:104FF00038AD49AD5AADCA01B9010E9419426BAB37
:105000007CAB8DAB9EAB27962CAD3DAD4EAD5FAD71
:105010002797CA01B9010E94194262966CAF7DAF11
:105020008EAF9FAF629720E030E040E850E4C501CA
:10503000B4010E941942A50194010E9419422BA9B2
:105040003CA94DA95EA90E94C13E62962CAD3DAD22
:105050004EAD5FAD62970E94C13E6B017C0120E0C6
:1050600030E0A9010E94B73F87FF02C00C94B03026
:10507000C701B6010E94B8426B017C0162962CAD5B
:105080003DAD4EAD5FAD62976BA97CA98DA99EA980
:105090000E94C23E0E94B8429B01AC01C701B6010A
:1050A00090580E94C13F6B017C013FA1333021F435
:1050B000F7FAF094F7F8F09420E030E0A901C50188
:1050C000B4010E94B73F87FF0FC0F7FAF094F7F8DA
:1050D000F094D501C401B0588093C8109093C910C2
:1050E000A093CA10B093CB10A701960127966CAD80
:1050F0007DAD8EAD9FAD27970E9419429B01AC01FB
:105100006FA978AD89AD9AAD0E94C13E20E030E034
:1051100040E05FE30E9419424B015C01A701960148
:105120006FA978AD89AD9AAD0E94194227962CAD32
:105130003DAD4EAD5FAD27970E94C23E20E030E00E
:1051400040E05FE30E9419422091A010222399F0D1
:10515000213011F18092AF109092B010A092B11056
:10516000B092B2106093B3107093B4108093B510E6
:105170009093B610CACD8092AB109092AC10A092D2
:10518000AD10B092AE106093AF107093B0108093DA
:10519000B1109093B210B9CD8092B3109092B41028
:1051A000A092B510B092B6106093AB107093AC1093
:1051B0008093AD109093AE10A8CD4BA9C42ED12CE6
:1051C00004231D2183E2012B09F441C88BA59CA572
:1051D000ADA5BEA5817F8BA79CA7ADA7BEA78091DB
:1051E0009E10813049F53BE9E32E30E1F32E10E0CB
:1051F00000E0C601002E02C0959587950A94E2F75B
:1052000080FF12C023E333E34BEC51E4D701509607
:105210006D917D918D919C9153970E941942F70158
:10522000608B718B828B938B0F5F1F4FF4E0EF0EBF
:10523000F11C03301105E9F6F501EE0FFF1FEE0F2B
:10524000FF1FE555FF4E20813181428153812BABF9
:105250003CAB4DAB5EAB6FA978AD89AD9AAD0E940A
:10526000C13E6FAB78AF89AF9AAFF401EE0FFF1F6D
:10527000EE0FFF1FE555FF4EC080D180E280F38026
:10528000A701960127966CAD7DAD8EAD9FAD27979A
:105290000E94C13E4B015C012FA938AD49AD5AAD0A
:1052A000CA01B9010E9419426FAB78AF89AF9AAFBA
:1052B000A5019401C501B4010E9419429B01AC01F2
:1052C0006FA978AD89AD9AAD0E94C23E0E94B842E6
:1052D0004B015C012BA93CA94DA95EA9CA01B901EA
:1052E0000E9419426BAB7CAB8DAB9EABA7019601C4
:1052F000C701B6010E9419429B01AC016BA97CA9B0
:105300008DA99EA90E94C23E0E94B8426B017C01F9
:10531000C092C810D092C910E092CA10F092CB107F
:10532000AC019B01C501B4010E94C13E4B015C016F
:10533000E894B7F82AE037ED43EA5BE3C501B4012E
:105340000E94D94118160CF0E0CC20E030E040E09B
:105350005FE3C501B4010E94D94118160CF423CEB5
:105360002FE632E143E85AE3C701B6010E94194231
:105370009B01AC01C501B4010E94D94118160CF083
:10538000C4CC11CE8BA59CA5ADA5BEA58E7D9C7F62
:10539000EACC80913310F0904C1081FF12C08FA1A5
:1053A0008150833018F0EFA5E064EFA74528462828
:1053B000472809F445C1F2E03F1242C12FA52068F9
:1053C0002FA78091C0109091C110A091C210B091F0
:1053D000C3108093571090935810A0935910B09316
:1053E0005A108D8F9E8FAF8FB8A380919D108093A0
:1053F0004410882311F088E089A38091A710909130
:10540000A810A091A910B091AA1080935210909367
:105410005310A0935410B09355108D8B9E8BAF8B6F
:10542000B88F8090CC109090CD10A090CE10B090FE
:10543000CF10A501940160914E1070914F10809192
:105440005010909151100E94B73F9FA59074E92E83
:10545000811103C0AFA5A5FF1FC0FF2069F0BFA544
:10546000B7FD0AC040E050E0BA01E11002C0B5014A
:10547000A4018F2D0E94981B8091CC109091CD108B
:10548000A091CE10B091CF1080934E1090934F10FA
:10549000A0935010B0935110E1100CC080914E10A9
:1054A00090914F10A0915010B0915110898F9A8F08
:1054B000AB8FBC8F8091D010809356108091A51037
:1054C00090914C10981751F0498D5A8D6B8D7C8DB1
:1054D0000E94981B8091A51080934C1089A19091F7
:1054E0004C10892B89A3F090A41080914B108F153C
:1054F00069F08091B90F823029F00E945E1B8F2DD8
:105500000E94A70B8091A41080934B1089A19091C9
:105510004B10892B89A380919B10843099F4809142
:10552000B90F823079F0C090C410D090C510E090CF
:10553000C610F090C7100E945E1B40E0C701B60184
:105540000E94161A8091A0108093471080919E109F
:1055500080934510E3E03E122EC08091A11080930D
:105560004810811108C01092D9101092DA101092D0
:10557000DB101092DC10C090D910D090DA10E090BF
:10558000DB10F090DC10A7019601609197107091EC
:1055900098108091991090919A100E94B73F88239B
:1055A00051F0C0929710D0929810E0929910F0921A
:1055B0009A100E94931B8091A21090914910981705
:1055C00069F08093491084E1FE013196AFE6B0E1C5
:1055D00001900D928A95E1F70E94931B80919F1094
:1055E0008093461080919B10863209F479C008F0B0
:1055F0003EC08C3109F45BC08E3109F458C08A304A
:1056000009F440C080919C1080934310803509F4C8
:1056100092C4B2E03B128FC4813009F075C0BE0164
:105620006B5E7F4F81ED90E10E94761F84E1E1ED9A
:10563000F0E1ABE5B0E101900D928A95E1F77BC412
:1056400030E1F312BECE9FA590748091431081503B
:10565000833038F4992309F4B4CE4FA540624FA7A4
:10566000B0CE9111AECE5FA550625FA7AACE8C35A9
:10567000E9F1863609F440C0883221F66BE570E125
:1056800087E031C06BEA70E1822D0E94B61B8091E9
:1056900049102812B7CF84E1EBEAF0E1AFE6B0E1C0
:1056A00001900D928A95E1F70E94931BABCF89A1DF
:1056B000816089A3332029F0B80181ED90E10E9437
:1056C000761FB8018BEA90E10E94761F84E1EBEA35
:1056D000F0E1ABE5B0E101900D928A95E1F792CF50
:1056E0006BE570E186E00E94B61B8CCF84E1E1EDB2
:1056F000F0E1A3E8B0E1D4CFE3E8F0E184E1DF0139
:105700001D928A95E9F7D0CF811105C089A18160EA
:1057100089A3B80187CF8250823008F0E3C320917B
:10572000C8103091C9104091CA105091CB102BABCA
:105730003CAB4DAB5EAB4FAD34E0439F80011124D9
:10574000C80185559F4E21969FAF8EAF2197DC01F2
:105750004D905D906D907C90F801E55AFF4E208150
:10576000318142815381C301B2010E94C23E6FA3C5
:1057700078A789A79AA72296EFAD2297B4E0EB9F6E
:1057800050011124950125553F4E23963FAF2EAF72
:105790002397D901CD90DD90ED90FC90F501E55A6D
:1057A000FF4E2081318142815381C701B6010E94A1
:1057B000C23E6BAF7CAF8DAF9EAF77FA709477F837
:1057C0007094A701960150582BA73CA74DA75EA740
:1057D000F801EF52FF4E2FA138A549A55AA56081C7
:1057E0007181828193810E94C13E6B017C01F50130
:1057F000EF52FF4E2BAD3CAD4DAD5EAD6081718182
:10580000828193810E94C13E4B015C01A7019601F8
:10581000C301B2010E9419426FAB78AF89AF9AAF52
:10582000A50194016BA57CA58DA59EA50E9419429A
:105830009B01AC016FA978AD89AD9AAD0E94C23EC3
:105840006FAB78AF89AF9AAFA5019401C301B201E4
:105850000E9419424B015C01A70196016BA57CA532
:105860008DA59EA50E9419429B01AC01C501B40102
:105870000E94C13E2FA938AD49AD5AAD0E94413FAB
:105880006B017C013FA532FFACC22DEB37E346E054
:1058900055EB0E94D94187FD0AC02BED3FE049EC52
:1058A00050E4C701B6010E94C13E6B017C018090AB
:1058B000271090902810A0902910B0902A102BA9A2
:1058C0003CA94DA95EA9CA01B9010E94C23EA50129
:1058D00094010E94C13EA50194010E9419420E94B8
:1058E000B8424B015C0120E030E040E05FE3C701DB
:1058F000B6010E9419422BA93CA94DA95EA90E949C
:1059000019429F77A50194010E94C13F0E94A640C1
:105910000E943A4078AF6FAB6115710509F47FCEF4
:1059200019A190E080E00E9469404B015C0113FFE7
:105930000EC0AC019B016D897E898F89988D0E9474
:1059400019426D8B7E8B8F8B988F177F19A3A501C2
:105950009401C701B6010E94C13F6FA778AB89AB24
:105960009AAB2B96AFAD2B9754E0A59FC0011124A5
:10597000FC01EF52FF4E855A9F4EDC012D913D9167
:105980004D915C9160817181828193810E94C13EC1
:10599000A50194010E94C13F6BAB7CAB8DAB9EAB6C
:1059A00020916710309168104091691050916A10F1
:1059B0006091DD107091DE108091DF109091E01009
:1059C0000E94C13EA50194010E94C13F66966CAF42
:1059D0007DAF8EAF9FAF669720916B1030916C10AA
:1059E00040916D1050916E106091E1107091E21035
:1059F0008091E3109091E4100E94C13EA5019401B2
:105A00000E94C13F6A966CAF7DAF8EAF9FAF6A9721
:105A10002FA538A949A95AA9CA01B9010E9419425A
:105A20009B01AC0160E070E080E090E40E94C13E28
:105A30006B017C012BEA3AEA4AE25EE36FA578A9A2
:105A400089A99AA90E9419424B015C0120E030E02B
:105A500040E850E4C701B6010E94C23E9B01AC0180
:105A6000C501B4010E94194227966CAF7DAF8EAF7D
:105A70009FAF279720E030E040E05FE3C701B60129
:105A80000E9419422E966CAF7DAF8EAF9FAF2E97BE
:105A900010E022242394312C2896BFAD2897B170B2
:105AA0006B96BFAF6B972896EFAD2897E2706C9618
:105AB000EFAF6C972896FFAD2897F4702896FFAF4C
:105AC000289729962FAD299721706D962FAF6D9746
:105AD00029963FAD299732706E963FAF6E97299603
